:100000000C9456000C94A0000C94A0000C94A0003A
:100010000C94A0000C94A0000C94A0000C94A000E0
:100020000C94A0000C94A0000C94A0000C94A000D0
:100030000C94A0000C94A0000C94A0000C94A000C0
:100040000C94A0000C94A0000C94A0000C94A000B0
:100050000C94A0000C94A0000C94A0000C94A000A0
:100060000C94A0000C94A0000C94A0000C94A00090
:100070000C94A0000C94A0000C94A0000C94A00080
:100080000C94A0000C94A0000C94A0000C94A00070
:100090000C94A0000C94A0000C94A0000C94A00060
:1000A0000C94A0000C94A0000C94A00011241FBE7E
:1000B000CFEFDAE0DEBFCDBFECEAF0E040E017C002
:1000C000B591A59135912591059107FD0CC09591AC
:1000D0008591EF01F92FE82F05900D92A217B30734
:1000E000D9F7FE0104C01D92A217B307E1F7EC3A5D
:1000F000F40731F70E9480000C947E00F894FFCF43
:100100008AB180688AB9E4E6F0E08081877F8083E5
:10011000109280008CE08093810089E09DE39093B1
:100120008900809388001092850010928400B19B12
:10013000FECF8BB180588BB986B3826086BBF7CF78
:040140000C9400001B
:00000001FF
